:020000040000FA
:0400000010EF00F00D
:100008007D82F2A40AEF00F00CEF00F00EEF00F092
:0C001800A1EC05F07D921100ECEF03F06C
:10020000005245432E504F52543A202020202020A7
:10021000200055534552204E414D453A2020202084
:10022000202000444553542E504F52543A20202051
:100230002020200041542B43495053454E443D312A
:10024000360D0A0041542B434950535441545553E1
:100250000D0A0041542B434950434C4F53450D0A5E
:10026000005343414E4E494E472E2E2E0041542BF3
:0F02700043574C41500D0A004552524F52000067
:10028000C0EF01F084B047EF01F049EF01F0E1EF7A
:1002900001F04E507EEC05F0000E166E0E2AE1EFD6
:1002A00001F04E50EAEC04F0565057105810591017
:1002B000D8B45DEF01F05FEF01F0E1EF01F0000E67
:1002C0000D6E4EEF01F0080E0D6069EF01F06BEF5F
:1002D00001F087EF01F084B070EF01F073EF01F0EF
:1002E000010E74EF01F0000E800DF35000080008BD
:1002F000000800080008000800080008000816129E
:10030000D89016324E507EEC05F04EEF01F0000E04
:100310000D6E040E0E6E010E156EE1EF01F04E50E3
:10032000EAEC04F05650571058105910D8B49BEF0F
:1003300001F09DEF01F0E1EF01F00D2A0E06E1EF73
:1003400001F0060E1618D8A4A8EF01F0AAEF01F0EC
:10035000AEEF01F0010E146EB9EF01F0150E161894
:10036000D8A4B5EF01F0B7EF01F0B9EF01F0020E3C
:10037000146E000E0E6E4F507EEC05F0E1EF01F0B2
:100380000E50636E646A6450000AD8B4CAEF01F07C
:10039000E1EF01F06350000AD8B442EF01F0010A26
:1003A000D8B451EF01F0030AD8B463EF01F0010AA9
:1003B000D8B48FEF01F0070AD8B4A1EF01F0E1EF54
:1003C00001F012006A6E2BEF02F06450D8B4EBEF2C
:1003D00001F0EDEF01F0F3EF01F0000E686E400E5A
:1003E000676EF7EF01F0000E686E000E676E6A50E0
:1003F0006724696E44EF02F06AC069F06404D8A40F
:1004000004EF02F006EF02F00AEF02F0400E692658
:1004100044EF02F0020E6418D8A411EF02F013EFBB
:1004200002F017EF02F02D50692644EF02F0030EA0
:100430006418D8A41EEF02F020EF02F025EF02F0BE
:100440002D50400F692644EF02F044EF02F06AC0DD
:1004500069F044EF02F02E50656E666A6650000A3D
:10046000D8B435EF02F027EF02F06550010AD8B496
:1004700027EF02F0030AD8B4E5EF01F0060AD8B47A
:10048000FCEF01F027EF02F065EC04F06950800901
:1004900065EC05F064C02CF06AC02BF01200313A14
:1004A000204C4953542041434345535320504F4916
:1004B0004E54532000323A2053484F5720434F4E5A
:1004C0004E2E20535441545553202000333A20439C
:1004D00048414E47452043484154204D4F44452014
:1004E000202000343A20454E544552204348415480
:1004F000204D4F44452020202000353A204C4953C0
:1005000054204C415354204D5347532E202020203B
:1005100000363A20434C4F534520434F4E4E4543FF
:1005200054494F4E20202000202020202020202031
:1005300020202020202020202020202020200041BA
:10054000542B43495053544152543D225544502258
:100550002C223235352E3235352E3235352E323588
:1005600035222C313030302C313030320D0A6A6E69
:10057000520E566E95EC04F052507EEC05F06AC0B7
:100580002EF069C02DF0000E2B6E2BC02CF092982F
:1005900092969294000E6B6E780E636E525010EC31
:1005A00005F0030E17EC03F00A0E636E525010ECC8
:1005B00005F0030E17EC03F0020E636E525010ECC0
:1005C00005F0030E17EC03F0020E636E525010ECB0
:1005D00005F0020E17EC03F0020E636E525010ECA1
:1005E00005F0280E65EC05F065EC04F0080E65ECEE
:1005F00005F065EC04F0010E65EC05F0030E636E8A
:10060000525010EC05F065EC04F0060E65EC05F0B8
:1006100065EC04F00F0E65EC05F06B2A010E6B64BF
:1006200014EF03F016EF03F0CCEF02F01200576E58
:1006300094969494949294908994899689888988C0
:1006400057B625EF03F029EF03F0566A562A2AEF32
:1006500003F0566A5646564656468B505618F70BC8
:1006600056188B6E57B437EF03F03BEF03F0566A22
:10067000562A3CEF03F0566A564656468B5056189B
:10068000FB0B56188B6E57B248EF03F04CEF03F09C
:10069000566A562A4DEF03F0566A56468B50561846
:1006A000FD0B56188B6E57B058EF03F05CEF03F05C
:1006B000566A562A5DEF03F0566A8B505618FE0BA9
:1006C00056188B6E89981200576E57B66AEF03F072
:1006D0006EEF03F0566A562A6FEF03F0566A5646DD
:1006E000564656468B505618F70B56188B6E57B415
:1006F0007CEF03F080EF03F0566A562A81EF03F097
:10070000566A564656468B505618FB0B56188B6E3B
:1007100057B28DEF03F091EF03F0566A562A92EF2D
:1007200003F0566A56468B505618FD0B56188B6EC2
:1007300057B09DEF03F0A1EF03F0566A562AA2EFDF
:1007400003F0566A8B505618FE0B56188B6E12002B
:10075000576E57BEAEEF03F0B2EF03F0566A562A5B
:10076000B3EF03F0566A5646564656468B50561817
:10077000F70B56188B6E57BCC0EF03F0C4EF03F0B5
:10078000566A562AC5EF03F0566A564656468B50AF
:100790005618FB0B56188B6E57BAD1EF03F0D5EFF6
:1007A00003F0566A562AD6EF03F0566A56468B5027
:1007B0005618FD0B56188B6E57B8E1EF03F0E5EFB6
:1007C00003F0566A562AE6EF03F0566A8B50561825
:1007D000FE0B56188B6E12009E0EF66E040EF76E10
:1007E000000EF86E01EE00F010EED0F00900F5CF2B
:1007F000EEFFE550E150FAE1A90EF66E0B0EF76E32
:10080000000EF86E00EECBF010EE10F00900F5CF00
:10081000EEFFE550E150FAE1980EF66E0B0EF76E22
:10082000000EF86E00EE6CF010EE11F00900F5CF3E
:10083000EEFFE550E150FAE100EE80F04B0EEE6A7B
:10084000E806FDE100EE01F0550EEE6AE806FDE176
:100850007D907D92000EF86E0001C1EF04F0576E9E
:1008600015A035EF04F037EF04F064EF04F01150F9
:10087000D8A43DEF04F03FEF04F046EF04F057C07A
:1008800010F08D92112A000E64EF04F0080E11642E
:100890004CEF04F04EEF04F056EF04F08D82000EA2
:1008A000116E000E156E010E64EF04F010C056F0CC
:1008B000010E561656468D505618FD0B56188D6E65
:1008C000D8901032112A000E1200948694849482DB
:1008D00094808994898652507EEC05F089888988B5
:1008E000000E82B6010E636E89988998898889887E
:1008F000899889985250EAEC04F0595058105710D2
:1009000009E1050E565CD8A088EF04F08AEF04F0E8
:100910008CEF04F094EF04F06350D8A492EF04F04D
:1009200094EF04F06EEF04F01200000E586EA5EF85
:1009300004F0582A0F0E5818D8A4A1EF04F0A3EF22
:1009400004F0A5EF04F0C0EF04F05850050DF3508B
:10095000840FD96EDA6ADE04D8B4B1EF04F0B3EFD5
:1009600004F099EF04F05850050DF350840FD96E40
:10097000DA6A010EDF6E5650D96EDA6A58C0DFFFB0
:1009800012004BEC05F0DDEC05F0C3EC05F0F2ECE9
:1009900005F0E5EC05F0BAEC05F090EC05F030EC74
:1009A00005F0100E696E020EB7EC02F0AFEC05F028
:1009B000ECEC05F0000E646E000EE2EC01F0F28E3D
:1009C00040EC01F0F7EC05F02FEC04F0E0EF04F060
:1009D00010EF00F0626EF29E01C05EF002C05FF0A8
:1009E00003C060F004C061F0F28E6250050DF35058
:1009F000800FD96EDA6ADECF5AF0DECF5BF0DECF41
:100A00005CF0DECF5DF05A505E5C566E5B505F5816
:100A1000576E5C506058586E5D506158596E1200A8
:100A2000686E68507EEC05F017EF05F0898663C0AC
:100A300064F0656A666A676A6850EAEC04F06450BC
:100A4000565C655057586650585867505958D8A04A
:100A50002CEF05F02EEF05F016EF05F08996120049
:100A6000000E566E5650050DF350840FD96EDA6A9B
:100A7000DF6A562A0E0E566440EF05F042EF05F08D
:100A800032EF05F0820ED56EFF0ED76E000ED66ED9
:100A9000F294F28A1200000E926E000E936E010E16
:100AA000946E000E956E000E966E9680000E8C6E03
:100AB0009388938A938C938E000E8A6E000E896EB3
:100AC0008D828A8092808C901200586E94969494B5
:100AD000949294908994899689885850A8EC03F050
:100AE0008988899889988988585064EC03F08988A6
:100AF000899894869484948294801200566EF29E13
:100B00005650050DF350800FD96EDA6A01C0DEFF32
:100B100002C0DEFF03C0DEFF04C0DEFFF28E120063
:100B2000500E566E95EC04F0AB8EAB88AC98AC844E
:100B3000B886100EB06E460EAF6EAC8A9E989E9A26
:100B40001200010E8C1AFF0ED76E000ED66EF294B4
:100B5000010E0126000E022203220422120065EC7F
:100B600004F0010E65EC05F0060E636E525010ECB9
:100B700005F012004F0E566E95EC04F04E0E566EB8
:100B800095EC04F01200550E566E95EC04F0540EE0
:100B9000566E95EC04F0120062796520627965204A
:100BA00000000000002020202020202020202020E5
:090BB0002020202020202020201C
:100BBA00530E566E95EC04F053507EEC05F012007D
:100BCA00030EC26E0E0EC16E3E0EC06E120065ECB2
:100BDA0004F00C0E65EC05F01200510E566E95EC01
:080BEA0004F012001650120085
:020000040020DA
:08000000FFFFFFFFFFFFFFFF00
:020000040030CA
:0E000000FF06191EFF0181FF03C003E003404D
:00000001FF
